:040000009AEF0CF077
:1010000000E4199A198C193210F010DA191C132601
:101010001A1E1A161A0E1A061AFE19F619D019CC2B
:101020001554696D653A2000446174653A20000DDD
:10103000000090EC0CF00009D8B421EF08F023EF89
:1010400008F05DEF08F031EF08F013EC0DF077EFEA
:1010500008F00FEC0DF077EF08F007EC0DF077EFEC
:1010600008F013C035F014C036F002D841EF08F094
:101070000500FA6E0750FD6E0850FE6EFF6AFA50CA
:101080001200376E386A3850000AD8B44AEF08F0B8
:101090002DEF08F03750010AD8B42DEF08F0030AFD
:1010A000D8B425EF08F0010AD8B429EF08F0070AF0
:1010B000D8B42DEF08F02DEF08F024901EC0D9FF12
:1010C0001FC0DAFF1E4A1F2ADF5017EC0DF0200662
:1010D000D8A0210620502110D8A471EF08F073EF9A
:1010E00008F076EF08F0060E77EF08F0030E120016
:1010F00023EC0DF01EC0D9FF1FC0DAFFDF6E1E4AC1
:101100001F2A2006D8A0210620502110D8B48BEF2A
:1011100008F08DEF08F092EF08F01BEC0DF0050ED3
:10112000C9EF08F024869DEF08F0FBEC0CF0C9EF46
:1011300008F0FFEC0CF0C9EF08F00DC035F00EC060
:1011400036F002D8ADEF08F00500FA6E0150FD6EE2
:101150000250FE6EFF6AFA501200376E386A38503D
:10116000000AD8B4B6EF08F099EF08F03750010A3A
:10117000D8B499EF08F0030AD8B495EF08F0010A43
:10118000D8B495EF08F0070AD8B499EF08F099EFB2
:1011900008F012002C6E010E2D6E24B4D2EF08F070
:1011A000D4EF08F00EEF09F02CC01DF02492248437
:1011B00024900E0E226E010E1C6EF40E1B6E248601
:1011C000520E016E1A0E026E000E0D6E000E0E6EA5
:1011D000520E036E1A0E046E000E0F6E000E106E8D
:1011E000520E056E1A0E066E000E116E000E126E75
:1011F000520E076E1A0E086E000E136E000E146E5D
:101200004E0E096E1A0E0A6E000E156E000E166E48
:1012100035EC0DF01AEC0CF0000E2D6E2D50120076
:10122000A3EC0CF0000E406E190E416E510EACECAA
:101230000CF0680ECBEC09F04F0E4AEC0CF0456E4A
:10124000000E406E510EB5EC0CF0466E4550465CFB
:10125000D8B02DEF09F02FEF09F038EF09F0000EAC
:101260003D6E6F0E3E6E600E7BEC0AF03FEF09F0B4
:10127000000E3D6E630E3E6E600E7BEC0AF0150EA6
:10128000446E4B0E436EBE0EE82EFED7432EFCD7A7
:10129000442EFAD700F000F019EF09F000EF00F04B
:1012A000406E000E3D6E405041EC0AF0286E850EF7
:1012B000E82EFED700F0010E3D6E405041EC0AF0E2
:1012C000296E850EE82EFED700F0020E3D6E4050CE
:1012D00041EC0AF02A6E850EE82EFED700F0040ECF
:1012E0003D6E405041EC0AF0256E850EE82EFED78B
:1012F00000F0050E3D6E405041EC0AF0266E850E62
:10130000E82EFED700F0060E3D6E405041EC0AF08C
:10131000276E850EE82EFED700F0120024869EEF81
:1013200009F00BEC0DF0CAEF09F021EC0DF0030E03
:10133000CAEF09F007EC0DF0CAEF09F00DC035F067
:101340000EC036F002D8AEEF09F00500FA6E01507B
:10135000FD6E0250FE6EFF6AFA501200376E386A58
:101360003850000AD8B4B7EF09F09AEF09F03750B7
:10137000010AD8B49AEF09F0030AD8B491EF09F042
:10138000010AD8B491EF09F0070AD8B495EF09F033
:101390009AEF09F01200416E415050EC09F0280E0E
:1013A0002D6E100E2E6E78EC0BF0255057EC0CF0D5
:1013B0003A0E7BEC0CF0265057EC0CF03A0E7BEC1E
:1013C0000CF0275057EC0CF02F0E2D6E100E2E6ED9
:1013D00078EC0BF0210E2D6E100E2E6E78EC0BF0CB
:1013E0002A5057EC0CF03A0E7BEC0CF0295057ECDD
:1013F0000CF03A0E7BEC0CF0285057EC0CF02F0E52
:101400002D6E100E2E6E78EC0BF01200306E2C50FC
:101410002D10D8B40EEF0AF010EF0AF02AEF0AF000
:101420003050020D010EF324D96E000EF420DA6E56
:101430002CC0DEFF2DC0DDFF3050020D0D0EF32459
:10144000D96E000EF420DA6E2EC0DEFF2FC0DDFF55
:1014500040EF0AF03050020D010EF324D96E000E59
:10146000F420DA6E520EDE6E1A0EDD6E3050020D72
:101470000D0EF324D96E000EF420DA6EDE6ADD6AFA
:1014800012003E6E000E3F6E3E50CAEC08F000099E
:10149000D8B44DEF0AF04FEF0AF044EF0AF0B20E65
:1014A000316E170E326E3F0E336E000E346E6FECDF
:1014B0000CF03D0E2C6E000E2D6E000E2F6E010EE8
:1014C0002E6E2BEC0CF0000E316E000E326E000E04
:1014D000336E000E346E63EC0CF0F7EC0CF005ECA0
:1014E0000CF0E806D8B477EF0AF079EF0AF06FEF66
:1014F0000AF03F5012003F6E3F50CAEC08F000095E
:10150000D8B485EF0AF087EF0AF07CEF0AF05A0EA4
:10151000316E170E326E3E0E336E000E346E6FEC6F
:101520000CF03D0E2C6E000E2D6E000E2F6E010E77
:101530002E6E2BEC0CF0000E316E000E326E000E93
:10154000336E000E346E63EC0CF0F7EC0CF005EC2F
:101550000CF0E806D8B4AFEF0AF0B1EF0AF0A7EF4D
:101560000AF0120035EC0DF024A0B9EF0AF0BBEF41
:101570000AF0C7EF0AF090EC0CF00009D8B4C3EF02
:101580000AF0C5EF0AF0C7EF0AF00F0E226E2250E4
:10159000020D010EF324F66E100EF420F76EF86AB9
:1015A000000EF8220900F5CF39F00900F5CF3AF026
:1015B00002D8E4EF0AF00500FA6E3950FD6E3A5099
:1015C000FE6EFF6AFA501200226E12002490020E84
:1015D000236EF3EF0AF00BEC0DF017EF0BF007ECB6
:1015E0000DF017EF0BF011C035F012C036F002D835
:1015F00003EF0BF00500FA6E0550FD6E0650FE6E0F
:10160000FF6AFA501200376E386A3850000AD8B4B0
:101610000CEF0BF0EFEF0AF03750020AD8B4EBEF03
:101620000AF0010AD8B4EBEF0AF0EFEF0AF012006B
:101630003B6E010E3C6E24B220EF0BF022EF0BF05C
:1016400037EF0BF02482000E3C6E3B50D8B42BEFEA
:101650000BF02DEF0BF031EF0BF0010E226E33EF9C
:101660000BF0020E226E2FEC0DF03CEC0CF03C5017
:10167000120020EE02F03550D9263650DA22DECFA5
:101680002CF0DDCF2DF035C0D9FF36C0DAFFDECF2C
:101690002EF0DDCF2FF02BEC0CF0000E316E000E93
:1016A000326E000E336E000E346E6FEC0CF0020ED4
:1016B0001200180EB86E900EAB6E240EAC6EA00E1B
:1016C000AF6E010EB06E000E2C6E000E2D6EDEECB5
:1016D0000CF0000E2C6E000E2D6ED9EC0CF0000EEE
:1016E0002C6E000E2D6EE3EC0CF0000E2B6E120033
:1016F00085EF0BF02DC0F6FF2EC0F7FFF86A08004B
:10170000F5507BEC0CF02D4A2E2A2DC0F6FF2EC092
:10171000F7FFF86A0800F5500009D8A492EF0BF023
:1017200094EF0BF07AEF0BF01200000E8D6E000EAE
:101730008C6E000E896E000E8A6E000E8B6E070E88
:10174000966E92689368BF0E946E95687E681F0EC1
:101750007F6E000E7C6EF18E120035C02CF036C00C
:101760002DF0000E2F6E010E2E6E2BEC0CF0000EE5
:10177000316E000E326E000E336E000E346E6FEC62
:101780000CF0040E120035C02CF036C02DF0000E07
:101790002F6E020E2E6E2BEC0CF0000E316E000E32
:1017A000326E000E336E000E346E6FEC0CF0020ED3
:1017B000120035C02CF036C02DF0000E2F6E010E39
:1017C0002E6E2BEC0CF0000E316E000E326E000E01
:1017D000336E000E346E6FEC0CF0020E120035C04A
:1017E0002CF036C02DF0000E2F6E020E2E6E2BEC5C
:1017F0000CF0000E316E000E326E000E336E000ED5
:10180000346E6FEC0CF0040E1200010E2C6E24B23C
:101810000CEF0CF00EEF0CF018EF0CF024941D6898
:1018200035EC0DF031EC0DF033EC0DF023C02CF065
:101830002C501200C6BA1FEF0CF021EF0CF02AEF6B
:101840000CF0800EC76E080EC66E000EC56E270E19
:10185000C86EC68A120024A630EF0CF032EF0CF0EE
:101860003BEF0CF02CC01EF02DC01FF02EC020F05E
:101870002FC021F02496120042EF0CF0BEEC0CF0C9
:10188000B2EC0AF024B247EF0CF049EF0CF03EEF57
:101890000CF01200406E000E3D6E405041EC0AF01C
:1018A000416E850EE82EFED700F0415012002D6EDD
:1018B0002D380F0B300F7BEC0CF02D500F0B300F31
:1018C0007BEC0CF0120031C02CF032C02DF033C094
:1018D0002EF034C02FF0020E06EC0AF0120031C0D8
:1018E0002CF032C02DF033C02EF034C02FF0000E9B
:1018F00006EC0AF012002C6E9EA881EF0CF083EF2C
:101900000CF07CEF0CF02CC0ADFF1200800EC76E07
:10191000080EC66E000EC56E270EC86EC69A12005F
:10192000C5BC95EF0CF098EF0CF0010E99EF0CF0A0
:10193000000E120000EE01F02B0EEE6AE806FDE14B
:10194000000110EF09F086EC0CF095EC0BF0D4ECF4
:101950000CF059EC0BF01200426E40C03DF041C05B
:101960003EF042507BEC0AF01200416E40C03DF068
:10197000415041EC0AF0426E425012009EA6C3EF65
:101980000CF0C5EF0CF0BEEF0CF0120024801D50DF
:101990001D2417EC0DF0030E12002480D8801D3496
:1019A00017EC0DF0050E1200300ED36E000E9B6E7C
:1019B00012002CC049F02DC04AF012002CC04BF090
:1019C0002DC04CF012002CC047F02DC048F0120082
:1019D0002492000E236E0E0E1200249025EC0DF0C2
:1019E000040E12002492000E236E0E0E1200000E42
:1019F00018EC0BF012001EEC0DF0090E12001EEC9C
:101A00000DF00A0E12001BEC0DF0050E12002BEC6F
:101A10000DF0000E12002DEC0DF0010E12002DEC59
:101A20000DF0020E12002DEC0DF0010E12002C6EC6
:101A30002CC0C9FF1200C59AC5881200C58AC58886
:101A400012009E861200C9501200C5861200050EB3
:101A50001200010E1200C5841200C5821200C5805A
:0E1A600012009D961200C69A12009E96120069
:020000040030CA
:0E000000FF021F1EFF8B85FF0FC00FE00F4099
:00000001FF
