:0400000043EF00F0DA
:100008001982FACF15F0FBCF16F0F2AC0EEF00F024
:1000180010EF00F03DEF00F0A0A615EF00F017EF8D
:1000280000F02DEF00F0A1A61CEF00F01EEF00F08D
:100038002DEF00F002D82BEF00F00500FA6E0B5000
:10004800FD6E0C50FE6EF850FF6EFA5012003DEF38
:1000580000F09DA632EF00F034EF00F03DEF00F025
:100068009EA639EF00F03BEF00F03DEF00F01EEFE9
:1000780000F016C0FBFF15C0FAFF1992110082EFBD
:1000880001F00AEC02F0ADEC01F00009D8B44FEF32
:1000980000F051EF00F063EF00F0A3EC01F000096D
:1000A800D8B459EF00F05BEF00F05FEF00F0010EFD
:1000B8000D6EA3EF00F0020E0D6EA3EF00F0A3EC9F
:1000C80001F00009D8B46BEF00F06DEF00F071EFAC
:1000D80000F0030E0D6EA3EF00F0040E0D6EA3EFFB
:1000E80000F05CEC01F08FEC01F00009D8B47FEF70
:1000F80000F081EF00F0C0EF00F02EEC01F0C0EF4F
:1001080000F05CEC01F0C0EF00F08FEC01F00009AA
:10011800D8B491EF00F093EF00F0C0EF00F081EF5A
:1001280000F099EC01F00009D8B49DEF00F09FEFC2
:1001380000F0C0EF00F045EC01F0C0EF00F00D500A
:10014800136E146A1450000AD8B4ADEF00F0C0EF73
:1001580000F01350010AD8B475EF00F0030AD8B4C0
:1001680085EF00F0010AD8B489EF00F0070AD8B487
:1001780095EF00F0C0EF00F008EC02F0120073EC0D
:1001880001F0600EDCEC01F07F0ED7EC01F08A0E76
:10019800176E000E186EE6EC01F0000E176E000EDA
:1001A800186EEBEC01F0EA0E176E030E186ECDEC2C
:1001B80001F0020E176E040E186EE1EC01F0FA0E53
:1001C800176E030E186EF0EC01F0000E176E000E9D
:1001D800186ED2EC01F006EC02F01200B7EC01F058
:1001E800F28EF28CC3EC00F0630E1118D8A4FFEF66
:1001F80000F001EF01F005EF01F08B908B92F8EF22
:1002080000F06F0E1118D8A40CEF01F00EEF01F0FA
:1002180012EF01F08B808B92F8EF00F0F8EF00F00E
:1002280043EF00F0000E8D6E000E8C6E000E896E8E
:10023800000E8A6E000E8B6E070E966E926893689B
:10024800FC0E946E95687E681F0E7F6E000E7C6EA5
:10025800F18E120007500810D8B435EF01F037EFCF
:1002680001F044EF01F002D844EF01F00500FA6E06
:100278000750FD6E0850FE6EF850FF6EFA501200DF
:10028800120009500A10D8B44CEF01F04EEF01F0FB
:100298005BEF01F002D85BEF01F00500FA6E095040
:1002A800FD6E0A50FE6EF850FF6EFA5012001200F2
:1002B80005500610D8B463EF01F065EF01F072EF56
:1002C80001F002D872EF01F00500FA6E0550FD6EDC
:1002D8000650FE6EF850FF6EFA5012001200C6BAB1
:1002E80078EF01F07AEF01F081EF01F0800EC76E30
:1002F800060EC612000EC56EC68A120000EE01F088
:10030800110EEE6AE806FDE119901992000EF86EDA
:100318000001F2EF00F0C7A094EF01F097EF01F0B1
:10032800010E98EF01F0000E1200C7B09EEF01F029
:10033800A1EF01F0010EA2EF01F0000E1200C7B408
:10034800A8EF01F0ABEF01F0010EACEF01F0000EE9
:100358001200C7AAB2EF01F0B5EF01F0010EB6EF37
:1003680001F0000E120004EC02F0C0EC01F016ECF3
:1003780001F0C8EC01F01200800EC76E060EC6121E
:10038800000EC56EC69A1200300ED36E000E9B6E1C
:10039800120017C007F018C008F0120017C001F0CB
:1003A80018C002F01200176E17501724776E12004B
:1003B800176E17501724C86E120017C009F018C01E
:1003C8000AF0120017C00BF018C00CF0120017C08A
:1003D80003F018C004F0120017C005F018C006F0AA
:1003E80012001050F9EC01F01200126E12C0C9FF91
:1003F80012000CEC02F00E6E1200C9CF11F01200C0
:10040800D09E12009D861200C68812009E96120089
:04041800C9501200B5
:020000040030CA
:0E000000FF021F1EFF8B85FF0FC00FE00F4099
:00000001FF
